{
  "_format": "hh-sol-artifact-1",
  "contractName": "TwinProof",
  "sourceName": "contracts/Twin.sol",
  "abi": [
    {
      "anonymous": false,
      "inputs": [
        {
          "indexed": false,
          "internalType": "string",
          "name": "hash",
          "type": "string"
        },
        {
          "indexed": false,
          "internalType": "string",
          "name": "name",
          "type": "string"
        },
        {
          "indexed": false,
          "internalType": "string",
          "name": "version",
          "type": "string"
        },
        {
          "indexed": false,
          "internalType": "address",
          "name": "owner",
          "type": "address"
        },
        {
          "indexed": false,
          "internalType": "uint256",
          "name": "timestamp",
          "type": "uint256"
        }
      ],
      "name": "ModelRegistered",
      "type": "event"
    },
    {
      "anonymous": false,
      "inputs": [
        {
          "indexed": false,
          "internalType": "string",
          "name": "hash",
          "type": "string"
        },
        {
          "indexed": false,
          "internalType": "address",
          "name": "oldOwner",
          "type": "address"
        },
        {
          "indexed": false,
          "internalType": "address",
          "name": "newOwner",
          "type": "address"
        }
      ],
      "name": "OwnershipTransferred",
      "type": "event"
    },
    {
      "inputs": [
        {
          "internalType": "string",
          "name": "_hash",
          "type": "string"
        },
        {
          "internalType": "string",
          "name": "_name",
          "type": "string"
        },
        {
          "internalType": "string",
          "name": "_version",
          "type": "string"
        }
      ],
      "name": "registerModel",
      "outputs": [],
      "stateMutability": "nonpayable",
      "type": "function"
    },
    {
      "inputs": [
        {
          "internalType": "string",
          "name": "_hash",
          "type": "string"
        },
        {
          "internalType": "address",
          "name": "_newOwner",
          "type": "address"
        }
      ],
      "name": "transferOwnership",
      "outputs": [],
      "stateMutability": "nonpayable",
      "type": "function"
    },
    {
      "inputs": [
        {
          "internalType": "string",
          "name": "_hash",
          "type": "string"
        }
      ],
      "name": "verifyModel",
      "outputs": [
        {
          "internalType": "string",
          "name": "",
          "type": "string"
        },
        {
          "internalType": "string",
          "name": "",
          "type": "string"
        },
        {
          "internalType": "address",
          "name": "",
          "type": "address"
        },
        {
          "internalType": "uint256",
          "name": "",
          "type": "uint256"
        }
      ],
      "stateMutability": "view",
      "type": "function"
    }
  ],
  "bytecode": "0x6080604052348015600f57600080fd5b50610fff8061001f6000396000f3fe608060405234801561001057600080fd5b50600436106100415760003560e01c80637715fcc314610046578063b075f41e14610062578063c0e793c214610095575b600080fd5b610060600480360381019061005b919061080a565b6100b1565b005b61007c600480360381019061007791906108b1565b61026c565b60405161008c94939291906109d3565b60405180910390f35b6100af60048036038101906100aa9190610a52565b6104b1565b005b6001836040516100c19190610aea565b908152602001604051809103902060009054906101000a900460ff161561011d576040517f08c379a000000000000000000000000000000000000000000000000000000000815260040161011490610b4d565b60405180910390fd5b60405180608001604052808381526020018281526020013373ffffffffffffffffffffffffffffffffffffffff168152602001428152506000846040516101649190610aea565b908152602001604051809103902060008201518160000190816101879190610d79565b50602082015181600101908161019d9190610d79565b5060408201518160020160006101000a81548173ffffffffffffffffffffffffffffffffffffffff021916908373ffffffffffffffffffffffffffffffffffffffff16021790555060608201518160030155905050600180846040516102039190610aea565b908152602001604051809103902060006101000a81548160ff0219169083151502179055507f296c983cbbe25fcab11a84842a87e15faeb083bb5bf4810a84966cb00a025d18838383334260405161025f959493929190610e4b565b60405180910390a1505050565b6060806000806001856040516102829190610aea565b908152602001604051809103902060009054906101000a900460ff166102dd576040517f08c379a00000000000000000000000000000000000000000000000000000000081526004016102d490610eff565b60405180910390fd5b600080866040516102ee9190610aea565b908152602001604051809103902060405180608001604052908160008201805461031790610b9c565b80601f016020809104026020016040519081016040528092919081815260200182805461034390610b9c565b80156103905780601f1061036557610100808354040283529160200191610390565b820191906000526020600020905b81548152906001019060200180831161037357829003601f168201915b505050505081526020016001820180546103a990610b9c565b80601f01602080910402602001604051908101604052809291908181526020018280546103d590610b9c565b80156104225780601f106103f757610100808354040283529160200191610422565b820191906000526020600020905b81548152906001019060200180831161040557829003601f168201915b505050505081526020016002820160009054906101000a900473ffffffffffffffffffffffffffffffffffffffff1673ffffffffffffffffffffffffffffffffffffffff1673ffffffffffffffffffffffffffffffffffffffff168152602001600382015481525050905080600001518160200151826040015183606001519450945094509450509193509193565b6001826040516104c19190610aea565b908152602001604051809103902060009054906101000a900460ff1661051c576040517f08c379a000000000000000000000000000000000000000000000000000000000815260040161051390610eff565b60405180910390fd5b3373ffffffffffffffffffffffffffffffffffffffff166000836040516105439190610aea565b908152602001604051809103902060020160009054906101000a900473ffffffffffffffffffffffffffffffffffffffff1673ffffffffffffffffffffffffffffffffffffffff16146105cb576040517f08c379a00000000000000000000000000000000000000000000000000000000081526004016105c290610f6b565b60405180910390fd5b600080836040516105dc9190610aea565b908152602001604051809103902060020160009054906101000a900473ffffffffffffffffffffffffffffffffffffffff169050816000846040516106219190610aea565b908152602001604051809103902060020160006101000a81548173ffffffffffffffffffffffffffffffffffffffff021916908373ffffffffffffffffffffffffffffffffffffffff1602179055507f6840904f5b31827f74e1497360da245f56e530c8c3de3163a2d31f11493273c68382846040516106a393929190610f8b565b60405180910390a1505050565b6000604051905090565b600080fd5b600080fd5b600080fd5b600080fd5b6000601f19601f8301169050919050565b7f4e487b7100000000000000000000000000000000000000000000000000000000600052604160045260246000fd5b610717826106ce565b810181811067ffffffffffffffff82111715610736576107356106df565b5b80604052505050565b60006107496106b0565b9050610755828261070e565b919050565b600067ffffffffffffffff821115610775576107746106df565b5b61077e826106ce565b9050602081019050919050565b82818337600083830152505050565b60006107ad6107a88461075a565b61073f565b9050828152602081018484840111156107c9576107c86106c9565b5b6107d484828561078b565b509392505050565b600082601f8301126107f1576107f06106c4565b5b813561080184826020860161079a565b91505092915050565b600080600060608486031215610823576108226106ba565b5b600084013567ffffffffffffffff811115610841576108406106bf565b5b61084d868287016107dc565b935050602084013567ffffffffffffffff81111561086e5761086d6106bf565b5b61087a868287016107dc565b925050604084013567ffffffffffffffff81111561089b5761089a6106bf565b5b6108a7868287016107dc565b9150509250925092565b6000602082840312156108c7576108c66106ba565b5b600082013567ffffffffffffffff8111156108e5576108e46106bf565b5b6108f1848285016107dc565b91505092915050565b600081519050919050565b600082825260208201905092915050565b60005b83811015610934578082015181840152602081019050610919565b60008484015250505050565b600061094b826108fa565b6109558185610905565b9350610965818560208601610916565b61096e816106ce565b840191505092915050565b600073ffffffffffffffffffffffffffffffffffffffff82169050919050565b60006109a482610979565b9050919050565b6109b481610999565b82525050565b6000819050919050565b6109cd816109ba565b82525050565b600060808201905081810360008301526109ed8187610940565b90508181036020830152610a018186610940565b9050610a1060408301856109ab565b610a1d60608301846109c4565b95945050505050565b610a2f81610999565b8114610a3a57600080fd5b50565b600081359050610a4c81610a26565b92915050565b60008060408385031215610a6957610a686106ba565b5b600083013567ffffffffffffffff811115610a8757610a866106bf565b5b610a93858286016107dc565b9250506020610aa485828601610a3d565b9150509250929050565b600081905092915050565b6000610ac4826108fa565b610ace8185610aae565b9350610ade818560208601610916565b80840191505092915050565b6000610af68284610ab9565b915081905092915050565b7f4d6f64656c20616c726561647920726567697374657265640000000000000000600082015250565b6000610b37601883610905565b9150610b4282610b01565b602082019050919050565b60006020820190508181036000830152610b6681610b2a565b9050919050565b7f4e487b7100000000000000000000000000000000000000000000000000000000600052602260045260246000fd5b60006002820490506001821680610bb457607f821691505b602082108103610bc757610bc6610b6d565b5b50919050565b60008190508160005260206000209050919050565b60006020601f8301049050919050565b600082821b905092915050565b600060088302610c2f7fffffffffffffffffffffffffffffffffffffffffffffffffffffffffffffffff82610bf2565b610c398683610bf2565b95508019841693508086168417925050509392505050565b6000819050919050565b6000610c76610c71610c6c846109ba565b610c51565b6109ba565b9050919050565b6000819050919050565b610c9083610c5b565b610ca4610c9c82610c7d565b848454610bff565b825550505050565b600090565b610cb9610cac565b610cc4818484610c87565b505050565b5b81811015610ce857610cdd600082610cb1565b600181019050610cca565b5050565b601f821115610d2d57610cfe81610bcd565b610d0784610be2565b81016020851015610d16578190505b610d2a610d2285610be2565b830182610cc9565b50505b505050565b600082821c905092915050565b6000610d5060001984600802610d32565b1980831691505092915050565b6000610d698383610d3f565b9150826002028217905092915050565b610d82826108fa565b67ffffffffffffffff811115610d9b57610d9a6106df565b5b610da58254610b9c565b610db0828285610cec565b600060209050601f831160018114610de35760008415610dd1578287015190505b610ddb8582610d5d565b865550610e43565b601f198416610df186610bcd565b60005b82811015610e1957848901518255600182019150602085019450602081019050610df4565b86831015610e365784890151610e32601f891682610d3f565b8355505b6001600288020188555050505b505050505050565b600060a0820190508181036000830152610e658188610940565b90508181036020830152610e798187610940565b90508181036040830152610e8d8186610940565b9050610e9c60608301856109ab565b610ea960808301846109c4565b9695505050505050565b7f4d6f64656c206e6f7420666f756e640000000000000000000000000000000000600082015250565b6000610ee9600f83610905565b9150610ef482610eb3565b602082019050919050565b60006020820190508181036000830152610f1881610edc565b9050919050565b7f4f6e6c79206f776e65722063616e207472616e73666572000000000000000000600082015250565b6000610f55601783610905565b9150610f6082610f1f565b602082019050919050565b60006020820190508181036000830152610f8481610f48565b9050919050565b60006060820190508181036000830152610fa58186610940565b9050610fb460208301856109ab565b610fc160408301846109ab565b94935050505056fea2646970667358221220aead0a0146d7ec0965b6bece18bc784e444a9ebee7dea0f946b95c0f5379870e64736f6c634300081c0033",
  "linkReferences": {},
  "deployedLinkReferences": {}
}