{
  "_format": "hh-sol-artifact-1",
  "contractName": "TwinProof",
  "sourceName": "contracts/Twin.sol",
  "abi": [
    {
      "anonymous": false,
      "inputs": [
        {
          "indexed": true,
          "internalType": "bytes32",
          "name": "hash",
          "type": "bytes32"
        },
        {
          "indexed": false,
          "internalType": "string",
          "name": "name",
          "type": "string"
        },
        {
          "indexed": false,
          "internalType": "string",
          "name": "version",
          "type": "string"
        },
        {
          "indexed": true,
          "internalType": "address",
          "name": "owner",
          "type": "address"
        },
        {
          "indexed": false,
          "internalType": "uint256",
          "name": "royaltyPercentage",
          "type": "uint256"
        },
        {
          "indexed": false,
          "internalType": "uint256",
          "name": "timestamp",
          "type": "uint256"
        }
      ],
      "name": "ModelRegistered",
      "type": "event"
    },
    {
      "anonymous": false,
      "inputs": [
        {
          "indexed": true,
          "internalType": "bytes32",
          "name": "hash",
          "type": "bytes32"
        },
        {
          "indexed": true,
          "internalType": "address",
          "name": "oldOwner",
          "type": "address"
        },
        {
          "indexed": true,
          "internalType": "address",
          "name": "newOwner",
          "type": "address"
        }
      ],
      "name": "OwnershipTransferred",
      "type": "event"
    },
    {
      "inputs": [
        {
          "internalType": "bytes32",
          "name": "",
          "type": "bytes32"
        }
      ],
      "name": "exists",
      "outputs": [
        {
          "internalType": "bool",
          "name": "",
          "type": "bool"
        }
      ],
      "stateMutability": "view",
      "type": "function"
    },
    {
      "inputs": [
        {
          "internalType": "bytes32",
          "name": "",
          "type": "bytes32"
        }
      ],
      "name": "models",
      "outputs": [
        {
          "internalType": "string",
          "name": "name",
          "type": "string"
        },
        {
          "internalType": "string",
          "name": "version",
          "type": "string"
        },
        {
          "internalType": "address",
          "name": "owner",
          "type": "address"
        },
        {
          "internalType": "uint256",
          "name": "timestamp",
          "type": "uint256"
        },
        {
          "internalType": "uint256",
          "name": "royaltyPercentage",
          "type": "uint256"
        }
      ],
      "stateMutability": "view",
      "type": "function"
    },
    {
      "inputs": [
        {
          "internalType": "bytes32",
          "name": "_hash",
          "type": "bytes32"
        },
        {
          "internalType": "string",
          "name": "_name",
          "type": "string"
        },
        {
          "internalType": "string",
          "name": "_version",
          "type": "string"
        },
        {
          "internalType": "uint256",
          "name": "_royaltyPercentage",
          "type": "uint256"
        }
      ],
      "name": "registerModel",
      "outputs": [],
      "stateMutability": "nonpayable",
      "type": "function"
    },
    {
      "inputs": [
        {
          "internalType": "bytes32",
          "name": "_hash",
          "type": "bytes32"
        },
        {
          "internalType": "address",
          "name": "_newOwner",
          "type": "address"
        }
      ],
      "name": "transferOwnership",
      "outputs": [],
      "stateMutability": "nonpayable",
      "type": "function"
    },
    {
      "inputs": [
        {
          "internalType": "bytes32",
          "name": "_hash",
          "type": "bytes32"
        }
      ],
      "name": "verifyModel",
      "outputs": [
        {
          "internalType": "string",
          "name": "",
          "type": "string"
        },
        {
          "internalType": "string",
          "name": "",
          "type": "string"
        },
        {
          "internalType": "address",
          "name": "",
          "type": "address"
        },
        {
          "internalType": "uint256",
          "name": "",
          "type": "uint256"
        },
        {
          "internalType": "uint256",
          "name": "",
          "type": "uint256"
        }
      ],
      "stateMutability": "view",
      "type": "function"
    }
  ],
  "bytecode": "0x608060405234801561001057600080fd5b50611266806100206000396000f3fe608060405234801561001057600080fd5b50600436106100575760003560e01c806306ee84f71461005c5780631b6888531461007857806338a699a4146100ac578063e236f46b146100dc578063ef5d6bbb14610110575b600080fd5b61007660048036038101906100719190610ab1565b61012c565b005b610092600480360381019061008d9190610b50565b610330565b6040516100a3959493929190610c4c565b60405180910390f35b6100c660048036038101906100c19190610b50565b610574565b6040516100d39190610cc8565b60405180910390f35b6100f660048036038101906100f19190610b50565b610594565b604051610107959493929190610c4c565b60405180910390f35b61012a60048036038101906101259190610d0f565b6106fa565b005b6001600085815260200190815260200160002060009054906101000a900460ff161561018d576040517f08c379a000000000000000000000000000000000000000000000000000000000815260040161018490610d9b565b60405180910390fd5b60648111156101d1576040517f08c379a00000000000000000000000000000000000000000000000000000000081526004016101c890610e07565b60405180910390fd5b6040518060a001604052808481526020018381526020013373ffffffffffffffffffffffffffffffffffffffff1681526020014281526020018281525060008086815260200190815260200160002060008201518160000190816102359190611033565b50602082015181600101908161024b9190611033565b5060408201518160020160006101000a81548173ffffffffffffffffffffffffffffffffffffffff021916908373ffffffffffffffffffffffffffffffffffffffff1602179055506060820151816003015560808201518160040155905050600180600086815260200190815260200160002060006101000a81548160ff0219169083151502179055503373ffffffffffffffffffffffffffffffffffffffff16847fea15e7f45e1d0b1c73186f17447214ffea8ea6383f60ac6ebd9a9fe17c7d4f00858585426040516103229493929190611105565b60405180910390a350505050565b60608060008060006001600087815260200190815260200160002060009054906101000a900460ff16610398576040517f08c379a000000000000000000000000000000000000000000000000000000000815260040161038f906111a4565b60405180910390fd5b60008060008881526020019081526020016000206040518060a00160405290816000820180546103c790610e56565b80601f01602080910402602001604051908101604052809291908181526020018280546103f390610e56565b80156104405780601f1061041557610100808354040283529160200191610440565b820191906000526020600020905b81548152906001019060200180831161042357829003601f168201915b5050505050815260200160018201805461045990610e56565b80601f016020809104026020016040519081016040528092919081815260200182805461048590610e56565b80156104d25780601f106104a7576101008083540402835291602001916104d2565b820191906000526020600020905b8154815290600101906020018083116104b557829003601f168201915b505050505081526020016002820160009054906101000a900473ffffffffffffffffffffffffffffffffffffffff1673ffffffffffffffffffffffffffffffffffffffff1673ffffffffffffffffffffffffffffffffffffffff16815260200160038201548152602001600482015481525050905080600001518160200151826040015183606001518460800151955095509550955095505091939590929450565b60016020528060005260406000206000915054906101000a900460ff1681565b60006020528060005260406000206000915090508060000180546105b790610e56565b80601f01602080910402602001604051908101604052809291908181526020018280546105e390610e56565b80156106305780601f1061060557610100808354040283529160200191610630565b820191906000526020600020905b81548152906001019060200180831161061357829003601f168201915b50505050509080600101805461064590610e56565b80601f016020809104026020016040519081016040528092919081815260200182805461067190610e56565b80156106be5780601f10610693576101008083540402835291602001916106be565b820191906000526020600020905b8154815290600101906020018083116106a157829003601f168201915b5050505050908060020160009054906101000a900473ffffffffffffffffffffffffffffffffffffffff16908060030154908060040154905085565b6001600083815260200190815260200160002060009054906101000a900460ff1661075a576040517f08c379a0000000000000000000000000000000000000000000000000000000008152600401610751906111a4565b60405180910390fd5b3373ffffffffffffffffffffffffffffffffffffffff1660008084815260200190815260200160002060020160009054906101000a900473ffffffffffffffffffffffffffffffffffffffff1673ffffffffffffffffffffffffffffffffffffffff16146107fd576040517f08c379a00000000000000000000000000000000000000000000000000000000081526004016107f490611210565b60405180910390fd5b600080600084815260200190815260200160002060020160009054906101000a900473ffffffffffffffffffffffffffffffffffffffff1690508160008085815260200190815260200160002060020160006101000a81548173ffffffffffffffffffffffffffffffffffffffff021916908373ffffffffffffffffffffffffffffffffffffffff1602179055508173ffffffffffffffffffffffffffffffffffffffff168173ffffffffffffffffffffffffffffffffffffffff16847f0b659dccc8eb950324170e8d9598af5ee04ee070883eb28651a96788721fbf8360405160405180910390a4505050565b6000604051905090565b600080fd5b600080fd5b6000819050919050565b610912816108ff565b811461091d57600080fd5b50565b60008135905061092f81610909565b92915050565b600080fd5b600080fd5b6000601f19601f8301169050919050565b7f4e487b7100000000000000000000000000000000000000000000000000000000600052604160045260246000fd5b6109888261093f565b810181811067ffffffffffffffff821117156109a7576109a6610950565b5b80604052505050565b60006109ba6108eb565b90506109c6828261097f565b919050565b600067ffffffffffffffff8211156109e6576109e5610950565b5b6109ef8261093f565b9050602081019050919050565b82818337600083830152505050565b6000610a1e610a19846109cb565b6109b0565b905082815260208101848484011115610a3a57610a3961093a565b5b610a458482856109fc565b509392505050565b600082601f830112610a6257610a61610935565b5b8135610a72848260208601610a0b565b91505092915050565b6000819050919050565b610a8e81610a7b565b8114610a9957600080fd5b50565b600081359050610aab81610a85565b92915050565b60008060008060808587031215610acb57610aca6108f5565b5b6000610ad987828801610920565b945050602085013567ffffffffffffffff811115610afa57610af96108fa565b5b610b0687828801610a4d565b935050604085013567ffffffffffffffff811115610b2757610b266108fa565b5b610b3387828801610a4d565b9250506060610b4487828801610a9c565b91505092959194509250565b600060208284031215610b6657610b656108f5565b5b6000610b7484828501610920565b91505092915050565b600081519050919050565b600082825260208201905092915050565b60005b83811015610bb7578082015181840152602081019050610b9c565b60008484015250505050565b6000610bce82610b7d565b610bd88185610b88565b9350610be8818560208601610b99565b610bf18161093f565b840191505092915050565b600073ffffffffffffffffffffffffffffffffffffffff82169050919050565b6000610c2782610bfc565b9050919050565b610c3781610c1c565b82525050565b610c4681610a7b565b82525050565b600060a0820190508181036000830152610c668188610bc3565b90508181036020830152610c7a8187610bc3565b9050610c896040830186610c2e565b610c966060830185610c3d565b610ca36080830184610c3d565b9695505050505050565b60008115159050919050565b610cc281610cad565b82525050565b6000602082019050610cdd6000830184610cb9565b92915050565b610cec81610c1c565b8114610cf757600080fd5b50565b600081359050610d0981610ce3565b92915050565b60008060408385031215610d2657610d256108f5565b5b6000610d3485828601610920565b9250506020610d4585828601610cfa565b9150509250929050565b7f4d6f64656c20616c726561647920726567697374657265640000000000000000600082015250565b6000610d85601883610b88565b9150610d9082610d4f565b602082019050919050565b60006020820190508181036000830152610db481610d78565b9050919050565b7f526f79616c747920746f6f206869676800000000000000000000000000000000600082015250565b6000610df1601083610b88565b9150610dfc82610dbb565b602082019050919050565b60006020820190508181036000830152610e2081610de4565b9050919050565b7f4e487b7100000000000000000000000000000000000000000000000000000000600052602260045260246000fd5b60006002820490506001821680610e6e57607f821691505b602082108103610e8157610e80610e27565b5b50919050565b60008190508160005260206000209050919050565b60006020601f8301049050919050565b600082821b905092915050565b600060088302610ee97fffffffffffffffffffffffffffffffffffffffffffffffffffffffffffffffff82610eac565b610ef38683610eac565b95508019841693508086168417925050509392505050565b6000819050919050565b6000610f30610f2b610f2684610a7b565b610f0b565b610a7b565b9050919050565b6000819050919050565b610f4a83610f15565b610f5e610f5682610f37565b848454610eb9565b825550505050565b600090565b610f73610f66565b610f7e818484610f41565b505050565b5b81811015610fa257610f97600082610f6b565b600181019050610f84565b5050565b601f821115610fe757610fb881610e87565b610fc184610e9c565b81016020851015610fd0578190505b610fe4610fdc85610e9c565b830182610f83565b50505b505050565b600082821c905092915050565b600061100a60001984600802610fec565b1980831691505092915050565b60006110238383610ff9565b9150826002028217905092915050565b61103c82610b7d565b67ffffffffffffffff81111561105557611054610950565b5b61105f8254610e56565b61106a828285610fa6565b600060209050601f83116001811461109d576000841561108b578287015190505b6110958582611017565b8655506110fd565b601f1984166110ab86610e87565b60005b828110156110d3578489015182556001820191506020850194506020810190506110ae565b868310156110f057848901516110ec601f891682610ff9565b8355505b6001600288020188555050505b505050505050565b6000608082019050818103600083015261111f8187610bc3565b905081810360208301526111338186610bc3565b90506111426040830185610c3d565b61114f6060830184610c3d565b95945050505050565b7f4d6f64656c206e6f7420666f756e640000000000000000000000000000000000600082015250565b600061118e600f83610b88565b915061119982611158565b602082019050919050565b600060208201905081810360008301526111bd81611181565b9050919050565b7f4f6e6c79206f776e65722063616e207472616e73666572000000000000000000600082015250565b60006111fa601783610b88565b9150611205826111c4565b602082019050919050565b60006020820190508181036000830152611229816111ed565b905091905056fea2646970667358221220a62b610fc0b9880405433ed47f1ef26096f0ebcf1fed03aa767c0c5307c8c44764736f6c63430008130033",
  "linkReferences": {},
  "deployedLinkReferences": {}
}